{
  "contractName": "Meme",
  "abi": [
    {
      "anonymous": false,
      "inputs": [
        {
          "indexed": true,
          "name": "sender",
          "type": "address"
        },
        {
          "indexed": false,
          "name": "hash",
          "type": "string"
        }
      ],
      "name": "HashCreated",
      "type": "event"
    },
    {
      "constant": false,
      "inputs": [
        {
          "name": "_memeHash",
          "type": "string"
        }
      ],
      "name": "set",
      "outputs": [],
      "payable": false,
      "stateMutability": "nonpayable",
      "type": "function"
    },
    {
      "constant": true,
      "inputs": [],
      "name": "get",
      "outputs": [
        {
          "name": "",
          "type": "string"
        }
      ],
      "payable": false,
      "stateMutability": "view",
      "type": "function"
    }
  ],
  "bytecode": "0x608060405234801561001057600080fd5b506103b9806100206000396000f3fe608060405234801561001057600080fd5b50600436106100365760003560e01c80634ed3885e1461003b5780636d4ce63c146100f6575b600080fd5b6100f46004803603602081101561005157600080fd5b810190808035906020019064010000000081111561006e57600080fd5b82018360208201111561008057600080fd5b803590602001918460018302840111640100000000831117156100a257600080fd5b91908080601f016020809104026020016040519081016040528093929190818152602001838380828437600081840152601f19601f820116905080830192505050505050509192919290505050610179565b005b6100fe610246565b6040518080602001828103825283818151815260200191508051906020019080838360005b8381101561013e578082015181840152602081019050610123565b50505050905090810190601f16801561016b5780820380516001836020036101000a031916815260200191505b509250505060405180910390f35b806000908051906020019061018f9291906102e8565b503373ffffffffffffffffffffffffffffffffffffffff167f11063def554c818c69b700e89d0846c3d356667e0138d8c04c691a138003ac5f826040518080602001828103825283818151815260200191508051906020019080838360005b838110156102095780820151818401526020810190506101ee565b50505050905090810190601f1680156102365780820380516001836020036101000a031916815260200191505b509250505060405180910390a250565b606060008054600181600116156101000203166002900480601f0160208091040260200160405190810160405280929190818152602001828054600181600116156101000203166002900480156102de5780601f106102b3576101008083540402835291602001916102de565b820191906000526020600020905b8154815290600101906020018083116102c157829003601f168201915b5050505050905090565b828054600181600116156101000203166002900490600052602060002090601f016020900481019282601f1061032957805160ff1916838001178555610357565b82800160010185558215610357579182015b8281111561035657825182559160200191906001019061033b565b5b5090506103649190610368565b5090565b61038a91905b8082111561038657600081600090555060010161036e565b5090565b9056fea165627a7a723058203c244e35f5ac0835cb3f7db4e8c7adbeeb79ae6edd4152e6fbefda0e363c08cb0029",
  "source": "pragma solidity ^0.5.0;\n\ncontract Meme {\n  string memeHash;\n\n function set(string memory _memeHash) public {\n    memeHash = _memeHash;\n    emit HashCreated(msg.sender,_memeHash);\n  }\n  function get() public view returns (string memory) {\n    return memeHash;\n  }\n\n   event HashCreated(address indexed sender,string hash);\n}\n",
  "sourcePath": "M:/imgbc/src/contracts/Meme.sol",
  "compiler": {
    "name": "solc",
    "version": "0.5.8+commit.23d335f2.Emscripten.clang"
  },
  "schemaVersion": "3.0.16",
  "updatedAt": "2020-02-15T15:19:29.412Z",
  "devdoc": {
    "methods": {}
  },
  "userdoc": {
    "methods": {}
  }
}